H08072008   CU001   SIBS                                                                                                                                                                                                                                                                                                                                                                                                                                                                                                                                                                         T
D0000000000010084429ABDUL MUDTALLIB BIN OTHMAN                                                      ABDUL MUDTALLIB BIN IMY 17071969I31012003P208T534571                                 IT T534571                                 IT M74 BATALION KOR ORDANANS                KEM BATU KENTONMEN                                                              JALAN IPOH                              511000000MY     74 BATALION KOR ORDANANS                KEM BATU KENTONMEN                                                              JALAN IPOH                              511000000T
D0000000000010218255ABDUL MALIK                                                                     ABDUL MALIK         IOT 13051971I28052008P270S7118358J                               PP S7118358J                               PP MBLK 706 WOODLANDS DR 40                 #06-40                                                                          73070 SINGAPORE                         730706000OT     BLK 706 WOODLANDS DR 40                 #06-40                                                                          73070 SINGAPORE                         730706000T
D0000000000030236050CHANG KOK KEEN                                                                  CHANG KOK KEEN      IMY 18061968I05082005P154680618015653                            IN 680618015653                            IN M294  JALAN PADI MAHSURI                 TMN SENAI BARU  SENAI                                                           81400 JOHOR BAHRU                       814000000MY     294  JALAN PADI MAHSURI                 TMN SENAI BARU  SENAI                                                           81400 JOHOR BAHRU                       814000000T
D0000000000030264860Customer Name test line 1                                                       Customer Name test lIMY 01102008I11072008P001770809051577                            IN 770809051577                            IN                                                                                                                                                                  814000000                                                                                                                                                                       814000000T
D0000000000030264861Customer Name test line 1                                                       Customer Name test lIMY 01102008I11072008P001770809051577                            IN 770809051577                            IN                                                                                                                                                                  814000000                                                                                                                                                                       814000000T
D0000000000030264862Customer Name test line 1                                                       Customer Name test lIMY 01102008I11072008P001770809051577                            IN 770809051577                            IN                                                                                                                                                                  814000000                                                                                                                                                                       814000000T
D0000000000030264863Customer Name test line 1                                                       Customer Name test lIMY         I11072008P001770809051577                            IN 770809051577                            IN                                                                                                                                                                  814000000                                                                                                                                                                       814000000T
D0000000000030264864Customer Name test line 1                                                       Customer Name test lIMY 01102008I11072008P001770809051577                            IN 770809051577                            IN                                                                                                                                                                  814000000                                                                                                                                                                       814000000T
D0000000000030264865Customer Name test line 1                                                       Customer Name test lIMY 01102008I11072008P001770809051577                            IN 770809051577                            IN                                                                                                                                                                  814000000                                                                                                                                                                       814000000T
D0000000000030264866Customer Name test line 1                                                       Customer Name test lIMY 01102008I11072008P001770809051577                            IN 770809051577                            IN                                                                                                                                                                  814000000                                                                                                                                                                       814000000T
D0000000000030264867Customer Name test line 1                                                       Customer Name test lIMY 01102008I11072008P001770809051577                            IN 770809051577                            IN                                                                                                                                                                  814000000                                                                                                                                                                       814000000T
D0000000000030264868Customer Name test line 1                                                       Customer Name test lIMY 01102008I11072008P001770809051577                            IN 770809051577                            IN                                                                                                                                                                  814000000                                                                                                                                                                       814000000T
D0000000000030264869Customer Name test line 1                                                       Customer Name test lIMY 01102008I11072008P001770809051577                            IN 770809051577                            IN                                                                                                                                                                  814000000                                                                                                                                                                       814000000T
D0000000000030264870Customer Name test line 1                                                       Customer Name test lIMY 01102008I11072008P001770809051577                            IN 770809051577                            IN                                                                                                                                                                  814000000                                                                                                                                                                       814000000T
D0000000000030264871Customer Name test line 1               Customer Name test line 2               Customer Name test lIMY 01101972I11072008P001770809051577                            IN 770809051577                            IN                                                                                                                                                                  814000000                                                                                                                                                                       814000000T
D0000000000030264872Customer Name test line 1               Customer Name test line 2               Customer Name test lIMY 01101972I11072008P001770809051577                            IN 770809051577                            IN                                                                                                                                                                  814000000                                                                                                                                                                       814000000T
D0000000000030264873Customer Name test line 1               Customer Name test line 2               Customer Name test lIMY 01101972I11072008P001770809051577                            IN 770809051577                            IN                                                                                                                                                                  814000000                                                                                                                                                                       814000000T
D0000000000030264874Customer Name test line 1               Customer Name test line 2               Customer Name test lIMY 01101972I11072008P001770809051577                            IN 770809051577                            IN                                                                                                                                                                  814000000                                                                                                                                                                       814000000T
D0000000000030264875Customer Name test line 1               Customer Name test line 2               Customer Name test lIMY 01101972I11072008P001770809051577                            IN 770809051577                            IN                                                                                                                                                                  814000000                                                                                                                                                                       814000000T
D0000000000030264876Customer Name test line 1               Customer Name test line 2               Customer Name test lIMY 01101972I11072008P001770809051577                            IN 770809051577                            IN                                                                                                                                                                  814000000                                                                                                                                                                       814000000T
D0000000000030264877Customer Name test line 1               Customer Name test line 2               Customer Name test lIMY 01101972I11072008P001770809065577                            IN 770809065577                            IN Madd1                                                                                                                    01000 KANGAR                            010000000MY     add1                                                                                                                    01000 KANGAR                            010000000T
D0000000000040000011DAVID LINGAM & CO CLIENTS' ACCOUNT                                              DAVID LINGAM & CO CLPMY 07041958C1205199383210                                       BR 0                                       BR M21ST FLOOR, MENARA SAFUAN               NO 80 JALAN AMPANG                                                              50450 KUALA LUMPUR                      504500000MY     21ST FLOOR, MENARA SAFUAN               NO 80 JALAN AMPANG                                                              50450 KUALA LUMPUR                      504500000T
D0000000000110151570K PASUPATHY A/L M KANNAN                                                        K PASUPATHY A/L M KAIMY 16101961I14112002P208RF96303                                 IT RF96303                                 IT M54-02-15  KELUMPUK CEMPAKA              JLN AU 27/56 KERAMAT WANGSA                                                     54200 KUALA LUMPUR                      542000000MY     54-02-15  KELUMPUK CEMPAKA              JLN AU 27/56 KERAMAT WANGSA                                                     54200 KUALA LUMPUR                      542000000T
D0000000000120174918LING HUONG                                                                      LING HUONG          IMY 09061977I07102002P168K0403752                                IO K0403752                                IO PSUBLOT 2443-2444                        LOT 2063                                BOULEVARD COMM. CENTRE                  98000 98000 MIRI                        980000000MY     SUBLOT 2443-2444                        LOT 2063                                BOULEVARD COMM. CENTRE                  98000 98000 MIRI                        980000000T
D0000000000130307127MOHD KHAIRUDDIN B MOHD SHUKRI                                                   MOHD KHAIRUDDIN B MOIMY 03011981I24082006P004810103035965                            IN 810103035965                            IN                                                                                                                                                                  980000000                                                                                                                                                                       980000000T
D0000000000130307128MOHD SHOKRI BIN ZULKIFLI                                                        MOHD SHOKRI BIN ZULKIMY 13101971I26082008P208T817793                                 IT T817793                                 IT MCAW PENYIASATAN KHAS ATM                MARKAS 2 BRIGED JALAN HOSPITAL          IPOH                                    30450 PERAK                             304500000MY     CAW PENYIASATAN KHAS ATM                MARKAS 2 BRIGED JALAN HOSPITAL          IPOH                                    30450 PERAK                             304500000T
D0000000000140006387NGAOH AK JELONG                                                                 NGAOH AK JELONG     IMY 01011944I13061996P220K343355                                 IO K343355                                 IO M24A GROUND FL SELANGAN ROAD                                                                                             96000 SIBU SARAWAK                      960000000MY     24A GROUND FL SELANGAN ROAD                                                                                             96000 SIBU SARAWAK                      960000000T
D0000000000190150688SOORIYAN A/L SIVAM                                                              SOORIYAN A/L SIVAM  IMY 21071968I31101997P168680721105905                            IN 680721105905                            IN P12 JALAN KERAYONG 9                     TAMAN SRI KERAYONG                      42200 KLANG                             42200 SELANGOR                          422000000MY     12 JALAN KERAYONG 9                     TAMAN SRI KERAYONG                      42200 KLANG                             42200 SELANGOR                          422000000T
D0000000000190274672SULASTRI FIASTUTI                                                               SULASTRI FIASTUTI   IOT 11091989I21042008P270AL518211                                PP AL518211                                PP MNEO GIANT (M) SDN BHD                   WISMA CONCEPTS, 214A                    JLN BATU UNJUR 7 BAYU PERDANA           41200 KLANG                             412000000OT     NEO GIANT (M) SDN BHD                   WISMA CONCEPTS, 214A                    JLN BATU UNJUR 7 BAYU PERDANA           41200 KLANG                             412000000T
D0000000000190274673SIA LAI SUN                                                                     SIA LAI SUN         IMY 23101976I07072008P334761023145680                            IN 761023145680                            IN M39 TMN CAHAYA JLN SG CHUA                                                                                               43000 KAJANG                            430000000MY     39 TMN CAHAYA JLN SG CHUA                                                                                               43000 KAJANG                            430000000T
T0000000030                                                                                                                                                                                                                                                                                                                                                                                                                                                                                                                                                                                      T
